:020000040000FA
:08000000803102288731F22F44
:10000A00D03024008F009001013091008D018C01C5
:10001A000D082100D20024000C082100D1002E0076
:10002A001010213024008E000800200018170D300F
:10003A00890B1D280000200018132E001110003013
:10004A00F000F1008C31B22480318C315D24803192
:10005A002E00111C2D2842302000D500E830D40093
:10006A000030D3000030D2008D311625803170085F
:10007A002100A0007108A100A201A3012308200009
:10008A00A300210022082000A2002100210820004C
:10009A00A100210020082000A00000308031E620C5
:1000AA00803120002308D9002208D8002108D7006F
:1000BA002008D6008E31862620005508EF00540805
:1000CA00EE005308ED005208EC00080000307005FD
:1000DA00F80000307105F90080307205FA007F30AF
:1000EA007305FB007B087A0479047804031D8528CC
:1000FA000030F3000030F2000030F1000030F00070
:10010A0000307405F80000307505F9008030760576
:10011A00FA007F307705FB007B087A0479047804BB
:10012A00031D9F280030F7000030F6000030F5006C
:10013A000030F400F31FB9280030F8000030F9004D
:10014A000030FA008030FB007008F8027108F93BB1
:10015A007208FA3B7308FB3B7B08F3007A08F2004B
:10016A007908F1007808F000F71FD3280030F8006A
:10017A000030F9000030FA008030FB007408F80201
:10018A007508F93B7608FA3B7708FB3B7B08F700D2
:10019A007A08F6007908F5007808F4008030F3064A
:1001AA008030F70677087302031D0800760872028A
:1001BA00031D080075087102031D08007408700207
:1001CA0008002000A8002808031DA31FFC282009F6
:1001DA00AA002109AB002209AC002309AD00AA0A32
:1001EA000319AB0A0319AC0A0319AD0A0429230837
:1001FA00AD002208AC002108AB002008AA002308A1
:10020A00220421042004031D13290030A300003016
:10021A00A2000030A1000030A00008009630A4001F
:10022A002408A900FE302D0503193A290130A4003B
:10023A002408A9070130AD36AC0CAB0CAA0C890B0B
:10024A00202917290130A4002408A9070130AA0788
:10025A000030AB3D0030AC3D0030AD3D0130AD3635
:10026A00AC0CAB0CAA0C890B3429FF302D050319F1
:10027A004C29272902302902031C4E290130A902E0
:10028A000130AA35AB0DAC0DAD0D890B4629AC1F5B
:10029A003F2929185829FF30AA05FF30AB057F30BE
:1002AA00AC05FF30AD050310A90C2908A400A5016F
:1002BA00A601A7011830A435A50DA60DA70D890B17
:1002CA0060292408AA042508AB042608AC042708D8
:1002DA00AD042808031DA31F7329AD172D08A30019
:1002EA002C08A2002B08A1002A08A0000800200060
:1002FA0023088039A8002808F9002335A80028080F
:10030A00FB00A21B7B147B08031999297B0A031D96
:10031A0096290030A3000030A2000030A10000306E
:10032A00A000A217A301A1290030A3000030A20057
:10033A000030A1000030A00027088039A800280852
:10034A00FA007A087906031D79172735A8002808C4
:10035A00FA00A61B7A147A080319C1297A0A031D1E
:10036A00BE290030A7000030A6000030A5000030EA
:10037A00A400A617A701C9290030A7000030A600CB
:10038A000030A5000030A4007B087A0203180F2A67
:10039A00791FD3298030A8002808F9067B08A8000D
:1003AA002808FC007A08A8002808FB007C08A80096
:1003BA002808FA002008A8002808FC002408A80039
:1003CA002808A0007C08A8002808A4002108A80082
:1003DA002808FC002508A8002808A1007C08A80015
:1003EA002808A5002208A8002808FC002608A8005A
:1003FA002808A2007C08A8002808A6002308A8004C
:10040A002808FC002708A8002808A3007C08A800E0
:10041A002808A700FC017A08A800A9012908AB004E
:10042A007B082802AA00031CAB032B08803AAC0005
:10043A0080302C02031D232A1A302A02031C592A4F
:10044A002000230822042104200403192E2A013043
:10045A002F2A0030A8002808FC000030A300003032
:10046A00A2000030A1000030A0007A08A8002808E5
:10047A00FB005D2A7C1C482A7C3601382000A80033
:10048A002808FC004A2A0310FC0C20002018FC173C
:10049A000130A800A337A20CA10CA00CA80B4F2A6C
:1004AA000130A8002808FB077A087B02031C3F2AB0
:1004BA00791B902A7B08031D6C2A00302000A300B8
:1004CA000030A2000030A1000030A0000800200087
:1004DA002408A0072508A13D2608A23D2708A33D18
:1004EA00231C0B2B7C1C7F2A7C360138A800280889
:1004FA00FC00812A0310FC0C2018FC170130A8000C
:10050A00A337A20CA10CA00CA80B852A0130A800C5
:10051A002808FB070B2B20002308803AA80027088D
:10052A00803A2802031DA32A26082202031DA32AB1
:10053A0025082102031DA32A240820020318DB2A06
:10054A00FF30A800FF30A900FF30AA00FF30AB003F
:10055A0020082402AC002108253BAD002208263BD6
:10056A00AE002308273BAF002C08A8072D08A93D99
:10057A002E08AA3D2F08AB3D2B08A3002A08A2008B
:10058A002908A1002808A0008030A8002808F90638
:10059A00FC09FC0A7C08031DE32A0130A00700308D
:1005AA00A13D0030A23D0030A33DE32A2408A00269
:1005BA002508A13B2608A23B2708A33B23082204BF
:1005CA0021042004031D092B7C08031D092B00307C
:1005DA00A3000030A2000030A1000030A0000800F3
:1005EA000130A035A10DA20DA30D890BF62AFC1B23
:1005FA0020147C1C022B0314032B0310FC0D7B0814
:10060A000319092B0130FB02A21FF52AFA01FC1F6C
:10061A00162B7C087F3903192018142B162BFA0184
:10062A00FA0A7A080319422B0130A0070030A13DCB
:10063A000030A23D0030A33D231C422B2008A80015
:10064A002108A9002208AA002308AB000130AC0047
:10065A00AB37AA0CA90CA80CAC0B2D2B2B08A300AA
:10066A002A08A2002908A1002808A0007B0A031969
:10067A00422B0130A8002808FB077B0A031D7B08D0
:10068A00031D522B0030A3000030A2000030A1004D
:10069A000030A0007B080319F9017B1C562BA21716
:1006AA005A2B7F30A8002808A2057B36A800280804
:1006BA00A300F91F0800A317080020003B0880398F
:1006CA00C0004008C5003B35C0004008CB00BA1B3B
:1006DA004B144B0803197E2B4B0A031D7C2B00304D
:1006EA00BB000030BA000030B9000030B800BA17B9
:1006FA00862B0030BB000030BA000030B900003051
:10070A00B8003F088039C0004008C5063F35C00020
:10071A004008CA00BE1B4A144A080319A12B4A0AF8
:10072A00031D9F2B0030BF000030BE000030BD000B
:10073A000030BC00BE17A92B0030BF000030BE003D
:10074A000030BD000030BC004A08031D4B08031DE1
:10075A00B72B0030BB000030BA000030B9000030BF
:10076A00B80008003808C0004008F0003E088D3183
:10077A003425833171082000D1007008D000500858
:10078A00C000C101C201C3014308C9004208C80030
:10079A004108C7004008C6005108C000C101C20193
:1007AA00C3014308CF004208CE004108CD004008EB
:1007BA00CC003908C0004008F0003D088D313425CE
:1007CA00833171082000D1007008D0005008C000A1
:1007DA00C101C201C3014008C6074108C73D42081A
:1007EA00C83D4308C93D5108C000C101C201C30147
:1007FA004008CC074108CD3D4208CE3D4308CF3DD5
:10080A003A08C0004008F0003C088D313425833195
:10081A0071082000D1007008D0005008C000C10142
:10082A00C201C3014008C6074108C73D4208C83D86
:10083A004308C93D5108C000C101C201C3014008B3
:10084A00CC074108CD3D4208CE3D4308CF3D083094
:10085A00C635C70DC80DC90D890B2D2C3908C00026
:10086A004008F0003C088D3134258331710820009E
:10087A00D1007008D0005008C6075108C73D0030A3
:10088A00C83DC93D3808C0004008F0003D088D3118
:10089A003425833171082000D1007008D000500837
:1008AA00C6075108C73D0030C83DC93D0830C635A6
:1008BA00C70DC80DC90D890B5C2C3808C00040084B
:1008CA00F0003C088D313425833171082000D100B5
:1008DA007008D0005008C6075108C73D0030C83D0F
:1008EA00C93D3908C0004008F0003E088D31342562
:1008FA00833171082000D1007008D0005008CC075D
:10090A005108CD3D0030CE3DCF3D3A08C0004008E9
:10091A00F0003D088D313425833171082000D10063
:10092A007008D0005008CC075108CD3D0030CE3DAC
:10093A00CF3D3A08C0004008F0003E088D3134250A
:10094A00833171082000D1007008D0005008C0001F
:10095A005108C100C201C3010830C035C10DC20D22
:10096A00C30D890BB22C4008CC074108CD3D420883
:10097A00CE3D4308CF3D4608C0004708C10048089D
:10098A00C2004908C3001830C336C20CC10CC00CDF
:10099A00890BC92C4008CC074108CD3D4208CE3D01
:1009AA004308CF3D0830C635C70DC80DC90D890BA0
:1009BA00D82C4B084A07C000C101C10D4008823E2D
:1009CA00D000FF30413DD100CE1B002D0130CC3587
:1009DA00CD0DCE0DCF0D890BEC2CC91B4C1401305B
:1009EA00C635C70DC80DC90D890BF52CFF30D007C8
:1009FA00FF30D13DE92CCA01C91F192DFF30460528
:100A0A00C000FF304705C100FF304805C2007F30F3
:100A1A004905C300430842044104400403194C1821
:100A2A00172D192DCA01CA0A4A080319422D013085
:100A3A00CC070030CD3D0030CE3D0030CF3D4F1CBD
:100A4A00422D4C08C0004D08C1004E08C2004F0894
:100A5A00C3000130C400C337C20CC10CC00CC40BA4
:100A6A00302D4308CF004208CE004108CD0040088F
:100A7A00CC000130D0070030D13D5108803AC00087
:100A8A0080304002031D4B2DFF305002031C572DAE
:100A9A007F302000CF008030CE000030CD00003003
:100AAA00CC00812D20005108803AC00080304002DD
:100ABA00031D612D0130500203186E2D00302000F5
:100ACA00CF000030CE000030CD000030CC00C50190
:100ADA00812D20005008C0004008CB00FF30CC0513
:100AEA00FF30CD057F30CE050030CF054B18CE172D
:100AFA004B36C0004008CF004508C0004008CF046C
:100B0A004F08BB004E08BA004D08B9004C08B8009F
:100B1A0008008C31FB2485312000181380311A20FB
:100B2A00853120006F082100C40020006E082100D2
:100B3A00C30020006D082100C20020006C082100BB
:100B4A00C100C530860000308700AD308400003017
:100B5A0085000C30AB0016001A00AB0BB02D272E07
:100B6A00F401F40AAD308D31B2258531853021008A
:100B7A00A7000230A8008C31E2248531033021001D
:100B8A00AC007030AB005C30890BC92DAB0BC92DA2
:100B9A00AC0BC92D000080311A20853120006F0866
:100BAA002100C40020006E082100C30020006D0847
:100BBA002100C20020006C082100C1004130F3006E
:100BCA004030F2000030F1000030F0004408F70035
:100BDA004308F6004208F5004108F40080316B2012
:100BEA008531031C272EB52DF401F40AB0308D315E
:100BFA00B22585315F302100A7000030A8008C3172
:100C0A00E224853103302100AC007030AB005C3047
:100C1A00890B0D2EAB0B0D2EAC0B0D2E0000803167
:100C2A001A20853120006F082100C40020006E08B8
:100C3A002100C30020006D082100C20020006C08BA
:100C4A002100C1004130F3002030F2000030F100F1
:100C5A000030F00021004408F7004308F60042087B
:100C6A00F5004108F40080316B2085310318B52D59
:100C7A004130F300F030F2000030F1000030F000B3
:100C8A0021004408F7004308F6004208F50041082D
:100C9A00F40080316B208531031CF92D21004408B2
:100CAA002000A300210043082000A20021004208DE
:100CBA002000A100210041082000A0004130A70027
:100CCA00F030A6000030A5000030A4008D31922536
:100CDA00853120002308AB002208AA002108A900B8
:100CEA002008A8004130AF002030AE000030AD002F
:100CFA000030AC008D317225853120002B0821008F
:100D0A00C40020002A082100C3002000290821006D
:100D1A00C200200028082100C10044082000A700C2
:100D2A00210043082000A600210042082000A50057
:100D3A00210041082000A400C130A3002030A200F5
:100D4A000030A1000030A00081317C2185312000D3
:100D5A002308BF002208BE002108BD002008BC00ED
:100D6A004330BB006030BA000030B9000030B80030
:100D7A0083316223853120003B08D9003A08D80024
:100D8A003908D7003808D6004130D500A030D40041
:100D9A000030D3000030D2008E3186268531200003
:100DAA0055082100BC00200054082100BB00200087
:100DBA0053082100BA00200052082100B9003C085B
:100DCA002000A70021003B082000A60021003A08C5
:100DDA002000A500210039082000A4004130A3000A
:100DEA00F830A2000030A1000030A00081317C213F
:100DFA00853120002308EF002208EE002108ED00CB
:100E0A002008EC008E310F26853120006C08250061
:100E1A009300F401F40A03302100AB002B08F00020
:100E2A003C00100E890C01398C31D1248531063EE3
:100E3A00AD3E8D31B225853141302000B700F0300A
:100E4A00B6000030B5000030B4002100440820008C
:100E5A00B300210043082000B2002100420820000C
:100E6A00B100210041082000B0008D3153258531A1
:100E7A0020003308BF003208BE003108BD00300828
:100E8A00BC004430BB000930BA008030B9000030E1
:100E9A00B80083316223853120003B08D9003A0823
:100EAA00D8003908D7003808D6004130D500A0301C
:100EBA00D4000030D3000030D2008E31862685312E
:100ECA00200055082100C000200054082100BF005E
:100EDA00200053082100BE00200052082100BD0056
:100EEA0040082000A70021003F082000A60021009A
:100EFA003E082000A50021003D082000A400423041
:100F0A00A300BE30A2000030A1000030A000813151
:100F1A007C21853120002308EF002208EE002108F9
:100F2A00ED002008EC008E310F26853120006D0877
:100F3A002100A80020006C082100A7008C31E224BF
:100F4A00853103302100AC007030AB005C30890B76
:100F5A00AC2FAB0BAC2FAC0BAC2F000080311A209E
:100F6A00853120006F082100C40020006E0821008E
:100F7A00C30020006D082100C20020006C08210077
:100F8A00C1004130F3002030F2000030F10000309F
:100F9A00F0004408F7004308F6004208F50041084B
:100FAA00F40080316B2085310318272E4230F3007C
:100FBA000030F2000030F1000030F0002100440857
:100FCA00F7004308F6004208F5004108F4008031B2
:100FDA006B208531031C272E532E7D3084008C30E4
:100FEA008500C5308600003087000C308C316624BD
:060FFA00200085318E2D60
:1018BA0024008F15080023008F01203090008D012D
:1018CA000800FE0012001E00FE0B672C00342F00D9
:1018DA0096019701980199019A019B0108006030CD
:1018EA0031008D008F0191010630930092010800AA
:1018FA00FF34003400340034FF340034FF34FF3442
:10190A000034003400340034803027008E00FF3069
:10191A008D00C0308C0024001F08F33904389F0062
:10192A0008000130250090008F019101FF308D00E1
:10193A008C012E009010F03025008E000800043033
:10194A002500960095019701FF30930092012E0021
:10195A009011E03025009400080024000E1DBC2CD4
:10196A000E1071088D0070088C000E1408007108A2
:10197A008D0070088C0008000A303C0091000E307F
:10198A009200930194019501023096009701980103
:10199A009901863090000800F300F201731CD92CDB
:1019AA007008F1007108F2070310F00D0310F30C30
:1019BA007308031DD32C7208080021002808AA0006
:1019CA002708A900AA36A90CAA36A90C29082700B3
:1019DA008D00210027080339A9000530A935FF3EEB
:1019EA00031DF32C293527008C0008008C316C2448
:1019FA008C318D31DD258C318C3174248C318C31D4
:101A0A0060248C318C3189248C318C31C1248C3105
:101A1A008C31A4248C318C3196248C318031052070
:101A2A00080024008E140C08F2007208FA000D084F
:101A3A00F2007208F9007A08F200F3017908F4005A
:101A4A00F5017408F500F40172087404F7007308CC
:101A5A007504F8007808F1007708F0000800F8002B
:101A6A00F401F5017008F200F3017208F600730838
:101A7A00F700781C442D7608F4077708F53D013005
:101A8A00F635F70D890B452D0310F80C7808031D60
:101A9A003E2D7508F1007408F0000800803020001F
:101AAA00B3063708A3003608A2003508A100340897
:101ABA00A0003308A7003208A6003108A5003008A4
:101ACA00A40081317C2120002308B3002208B2003F
:101ADA002108B1002008B000080020002B08F300FC
:101AEA002A08F2002908F1002808F0002F08F70058
:101AFA002E08F6002D08F5002C08F40080316B2022
:101B0A008D310318080020002F08AB002E08AA0008
:101B1A002D08A9002C08A800080020002708F300B7
:101B2A002608F2002508F1002408F0002308F7002F
:101B3A002208F6002108F5002008F40080316B2005
:101B4A008D310318080020002708A3002608A200E8
:101B5A002508A1002408A0000800FA000130F402B8
:101B6A00740A031908001830F5007508F900790895
:101B7A000739031DCB2D7A08860087010108F50075
:101B8A007508F8000130F5007508FA07F81BCF2D23
:101B9A00C030D02DFE30F6000030F7007608230062
:101BAA008C000310F80D0130F9020319B32DBC2D76
:101BBA0020009601970101309800FF309100DF3034
:101BCA0092003730930006303E00CE00DF30C3006B
:101BDA00FE30B800E501C401B901CF01BA01C5015F
:101BEA00D001FF30BB00FF30C600FF30D1001530F6
:101BFA003D0093001330C50014303E00A3003D00A1
:101C0A00BB0115303E009D000E30A70014303D0088
:101C1A00C6000800031020006E0D6F0D2100A00001
:101C2A002008A6002608031D242E00302000EF00FD
:101C3A000030EE000030ED000030EC00080020001B
:101C4A006C082100A00020006D082100A1002000DE
:101C5A006E082100A20020006F082100A3001F3097
:101C6A00A336A20CA10CA00C890B352E2008A400C7
:101C7A002408A5002000EE17FF30EC05FF30ED0523
:101C8A00FF30EE050030EF0596302100A602A61FB0
:101C9A00632E2608803A973E031C1A2E0130200034
:101CAA00EF36EE0CED0CEC0C890B542E01302100B2
:101CBA00A0002008A6070319762E532E20302602EC
:101CCA0003181A2E26080319762E01302000EC3547
:101CDA00ED0DEE0DEF0D890B6B2E01302100A602E2
:101CEA00672E2508031908002000EC09ED09EE0902
:101CFA00EF09EC0A0319ED0A0319EE0A0319EF0AB0
:101D0A000800200059088039DA005A08E3005935DA
:101D1A00DA005A08EA00D81B6A146A080319A32EC3
:101D2A006A0A031DA02E0030D9000030D800003006
:101D3A00D7000030D600D817D901AB2E0030D90011
:101D4A000030D8000030D7000030D600550880395E
:101D5A00DA005A08E3065535DA005A08EB00D41BB4
:101D6A006B146B080319C72E6B0A031DC42E0030AF
:101D7A00D5000030D4000030D3000030D200D41790
:101D8A00D501CF2E0030D5000030D4000030D3006A
:101D9A000030D2005508540453045204031DEE2E99
:101DAA000030D9000030D8000030D7000030D6000B
:101DBA008030D8047F30D9046308DA005A08D9047D
:101DCA005908D5005808D4005708D3005608D2003D
:101DDA0008006A08031DFA2E0030D5000030D4002E
:101DEA000030D3000030D20008006A08DA00DB01B4
:101DFA005B08DD006B085A02DC00031CDD035C088B
:101E0A007F3EE40000305D3DE5005908E2005808D5
:101E1A00E1005708E0005608DF000030D900003022
:101E2A00D8000030D7000030D6000030E90000307A
:101E3A00E8000030E7000030E600EB011A306B02E0
:101E4A0003185F2F6B080319412F0130DF35E00DAE
:101E5A00E10DE20D890B2B2F0130D635D70DD80DA8
:101E6A00D90D890B322FE91B56140130E635E70DDF
:101E7A00E80DE90D890B3B2F55086202031D4F2F10
:101E8A0054086102031D4F2F53086002031D4F2F90
:101E9A0052085F02031C5A2F69175208DF025308BF
:101EAA00E03B5408E13B5508E23B0130DA005A08AE
:101EBA00EB07232F6208610460045F04031D6614A4
:101ECA00D81B7C2F0130D635D70DD80DD90D890BEB
:101EDA00682FE91B56140130E635E70DE80DE90DC8
:101EEA00890B712FFF30E407FF30E53D652FEB01C9
:101EFA00E91F952FFF306605DA00FF306705DB0022
:101F0A00FF306805DC007F306905DD005D085C0490
:101F1A005B045A0403195618932F952FEB01EB0A09
:101F2A006B080319BE2F0130D6070030D73D0030A9
:101F3A00D83D0030D93D591CBE2F5608DA00570843
:101F4A00DB005808DC005908DD000130DE00DD370F
:101F5A00DC0CDB0CDA0CDE0BAC2F5D08D9005C085C
:101F6A00D8005B08D7005A08D6000130E4070030D1
:101F7A00E53D6508803ADA0080305A02031DC72F12
:101F8A00FF306402031CD62FFF302000E40000302B
:101F9A00E5000030D9000030D8000030D70000300A
:101FAA00D60020006508803ADA0080305A02031D04
:101FBA00E02F013064020318EE2F2000E401E5014E
:101FCA000030D9000030D8000030D7000030D600E9
:101FDA00E30120006408DA005A08EA006A1CF72FB5
:101FEA00D817FB2F7F30DA005A08D8056A36DA008C
:061FFA005A08D900E12E97
:020000040001F9
:0A000E00EC3FFF3F9F3FFF3FFF3F25
:00000001FF
